{
  "_format": "hh-sol-artifact-1",
  "contractName": "StableDiffusionNFT",
  "sourceName": "contracts/StableDiffusionNFT.sol",
  "abi": [
    {
      "inputs": [],
      "stateMutability": "nonpayable",
      "type": "constructor"
    },
    {
      "anonymous": false,
      "inputs": [
        {
          "indexed": true,
          "internalType": "address",
          "name": "owner",
          "type": "address"
        },
        {
          "indexed": true,
          "internalType": "address",
          "name": "approved",
          "type": "address"
        },
        {
          "indexed": true,
          "internalType": "uint256",
          "name": "tokenId",
          "type": "uint256"
        }
      ],
      "name": "Approval",
      "type": "event"
    },
    {
      "anonymous": false,
      "inputs": [
        {
          "indexed": true,
          "internalType": "address",
          "name": "owner",
          "type": "address"
        },
        {
          "indexed": true,
          "internalType": "address",
          "name": "operator",
          "type": "address"
        },
        {
          "indexed": false,
          "internalType": "bool",
          "name": "approved",
          "type": "bool"
        }
      ],
      "name": "ApprovalForAll",
      "type": "event"
    },
    {
      "anonymous": false,
      "inputs": [
        {
          "indexed": false,
          "internalType": "address",
          "name": "sender",
          "type": "address"
        },
        {
          "indexed": false,
          "internalType": "uint256",
          "name": "tokenId",
          "type": "uint256"
        }
      ],
      "name": "NewNFTMinted",
      "type": "event"
    },
    {
      "anonymous": false,
      "inputs": [
        {
          "indexed": true,
          "internalType": "address",
          "name": "from",
          "type": "address"
        },
        {
          "indexed": true,
          "internalType": "address",
          "name": "to",
          "type": "address"
        },
        {
          "indexed": true,
          "internalType": "uint256",
          "name": "tokenId",
          "type": "uint256"
        }
      ],
      "name": "Transfer",
      "type": "event"
    },
    {
      "inputs": [
        {
          "internalType": "address",
          "name": "to",
          "type": "address"
        },
        {
          "internalType": "uint256",
          "name": "tokenId",
          "type": "uint256"
        }
      ],
      "name": "approve",
      "outputs": [],
      "stateMutability": "nonpayable",
      "type": "function"
    },
    {
      "inputs": [
        {
          "internalType": "address",
          "name": "owner",
          "type": "address"
        }
      ],
      "name": "balanceOf",
      "outputs": [
        {
          "internalType": "uint256",
          "name": "",
          "type": "uint256"
        }
      ],
      "stateMutability": "view",
      "type": "function"
    },
    {
      "inputs": [
        {
          "internalType": "uint256",
          "name": "tokenId",
          "type": "uint256"
        }
      ],
      "name": "getApproved",
      "outputs": [
        {
          "internalType": "address",
          "name": "",
          "type": "address"
        }
      ],
      "stateMutability": "view",
      "type": "function"
    },
    {
      "inputs": [
        {
          "internalType": "address",
          "name": "owner",
          "type": "address"
        },
        {
          "internalType": "address",
          "name": "operator",
          "type": "address"
        }
      ],
      "name": "isApprovedForAll",
      "outputs": [
        {
          "internalType": "bool",
          "name": "",
          "type": "bool"
        }
      ],
      "stateMutability": "view",
      "type": "function"
    },
    {
      "inputs": [
        {
          "internalType": "string",
          "name": "url",
          "type": "string"
        },
        {
          "internalType": "string",
          "name": "desc",
          "type": "string"
        }
      ],
      "name": "mintNFT",
      "outputs": [
        {
          "internalType": "uint256",
          "name": "",
          "type": "uint256"
        }
      ],
      "stateMutability": "nonpayable",
      "type": "function"
    },
    {
      "inputs": [],
      "name": "name",
      "outputs": [
        {
          "internalType": "string",
          "name": "",
          "type": "string"
        }
      ],
      "stateMutability": "view",
      "type": "function"
    },
    {
      "inputs": [
        {
          "internalType": "uint256",
          "name": "tokenId",
          "type": "uint256"
        }
      ],
      "name": "ownerOf",
      "outputs": [
        {
          "internalType": "address",
          "name": "",
          "type": "address"
        }
      ],
      "stateMutability": "view",
      "type": "function"
    },
    {
      "inputs": [
        {
          "internalType": "address",
          "name": "from",
          "type": "address"
        },
        {
          "internalType": "address",
          "name": "to",
          "type": "address"
        },
        {
          "internalType": "uint256",
          "name": "tokenId",
          "type": "uint256"
        }
      ],
      "name": "safeTransferFrom",
      "outputs": [],
      "stateMutability": "nonpayable",
      "type": "function"
    },
    {
      "inputs": [
        {
          "internalType": "address",
          "name": "from",
          "type": "address"
        },
        {
          "internalType": "address",
          "name": "to",
          "type": "address"
        },
        {
          "internalType": "uint256",
          "name": "tokenId",
          "type": "uint256"
        },
        {
          "internalType": "bytes",
          "name": "data",
          "type": "bytes"
        }
      ],
      "name": "safeTransferFrom",
      "outputs": [],
      "stateMutability": "nonpayable",
      "type": "function"
    },
    {
      "inputs": [
        {
          "internalType": "address",
          "name": "operator",
          "type": "address"
        },
        {
          "internalType": "bool",
          "name": "approved",
          "type": "bool"
        }
      ],
      "name": "setApprovalForAll",
      "outputs": [],
      "stateMutability": "nonpayable",
      "type": "function"
    },
    {
      "inputs": [
        {
          "internalType": "bytes4",
          "name": "interfaceId",
          "type": "bytes4"
        }
      ],
      "name": "supportsInterface",
      "outputs": [
        {
          "internalType": "bool",
          "name": "",
          "type": "bool"
        }
      ],
      "stateMutability": "view",
      "type": "function"
    },
    {
      "inputs": [],
      "name": "symbol",
      "outputs": [
        {
          "internalType": "string",
          "name": "",
          "type": "string"
        }
      ],
      "stateMutability": "view",
      "type": "function"
    },
    {
      "inputs": [
        {
          "internalType": "uint256",
          "name": "tokenId",
          "type": "uint256"
        }
      ],
      "name": "tokenURI",
      "outputs": [
        {
          "internalType": "string",
          "name": "",
          "type": "string"
        }
      ],
      "stateMutability": "view",
      "type": "function"
    },
    {
      "inputs": [],
      "name": "totalNFTs",
      "outputs": [
        {
          "internalType": "uint256",
          "name": "",
          "type": "uint256"
        }
      ],
      "stateMutability": "view",
      "type": "function"
    },
    {
      "inputs": [
        {
          "internalType": "address",
          "name": "from",
          "type": "address"
        },
        {
          "internalType": "address",
          "name": "to",
          "type": "address"
        },
        {
          "internalType": "uint256",
          "name": "tokenId",
          "type": "uint256"
        }
      ],
      "name": "transferFrom",
      "outputs": [],
      "stateMutability": "nonpayable",
      "type": "function"
    }
  ],
  "bytecode": "0x60806040523480156200001157600080fd5b506040518060400160405280601281526020017f537461626c65446966667573696f6e4e465400000000000000000000000000008152506040518060400160405280600581526020017f53444e465400000000000000000000000000000000000000000000000000000081525081600090816200008f919062000324565b508060019081620000a1919062000324565b5050506200040b565b600081519050919050565b7f4e487b7100000000000000000000000000000000000000000000000000000000600052604160045260246000fd5b7f4e487b7100000000000000000000000000000000000000000000000000000000600052602260045260246000fd5b600060028204905060018216806200012c57607f821691505b602082108103620001425762000141620000e4565b5b50919050565b60008190508160005260206000209050919050565b60006020601f8301049050919050565b600082821b905092915050565b600060088302620001ac7fffffffffffffffffffffffffffffffffffffffffffffffffffffffffffffffff826200016d565b620001b886836200016d565b95508019841693508086168417925050509392505050565b6000819050919050565b6000819050919050565b600062000205620001ff620001f984620001d0565b620001da565b620001d0565b9050919050565b6000819050919050565b6200022183620001e4565b6200023962000230826200020c565b8484546200017a565b825550505050565b600090565b6200025062000241565b6200025d81848462000216565b505050565b5b8181101562000285576200027960008262000246565b60018101905062000263565b5050565b601f821115620002d4576200029e8162000148565b620002a9846200015d565b81016020851015620002b9578190505b620002d1620002c8856200015d565b83018262000262565b50505b505050565b600082821c905092915050565b6000620002f960001984600802620002d9565b1980831691505092915050565b6000620003148383620002e6565b9150826002028217905092915050565b6200032f82620000aa565b67ffffffffffffffff8111156200034b576200034a620000b5565b5b62000357825462000113565b6200036482828562000289565b600060209050601f8311600181146200039c576000841562000387578287015190505b62000393858262000306565b86555062000403565b601f198416620003ac8662000148565b60005b82811015620003d657848901518255600182019150602085019450602081019050620003af565b86831015620003f65784890151620003f2601f891682620002e6565b8355505b6001600288020188555050505b505050505050565b6132ae806200041b6000396000f3fe608060405234801561001057600080fd5b50600436106100f55760003560e01c80636352211e11610097578063b88d4fde11610066578063b88d4fde14610284578063c87b56dd146102a0578063e9605544146102d0578063e985e9c514610300576100f5565b80636352211e146101ea57806370a082311461021a57806395d89b411461024a578063a22cb46514610268576100f5565b8063095ea7b3116100d3578063095ea7b3146101785780630d0e96da1461019457806323b872dd146101b257806342842e0e146101ce576100f5565b806301ffc9a7146100fa57806306fdde031461012a578063081812fc14610148575b600080fd5b610114600480360381019061010f9190611d03565b610330565b6040516101219190611d4b565b60405180910390f35b610132610412565b60405161013f9190611df6565b60405180910390f35b610162600480360381019061015d9190611e4e565b6104a4565b60405161016f9190611ebc565b60405180910390f35b610192600480360381019061018d9190611f03565b6104ea565b005b61019c610601565b6040516101a99190611f52565b60405180910390f35b6101cc60048036038101906101c79190611f6d565b610612565b005b6101e860048036038101906101e39190611f6d565b610672565b005b61020460048036038101906101ff9190611e4e565b610692565b6040516102119190611ebc565b60405180910390f35b610234600480360381019061022f9190611fc0565b610718565b6040516102419190611f52565b60405180910390f35b6102526107cf565b60405161025f9190611df6565b60405180910390f35b610282600480360381019061027d9190612019565b610861565b005b61029e6004803603810190610299919061218e565b610877565b005b6102ba60048036038101906102b59190611e4e565b6108d9565b6040516102c79190611df6565b60405180910390f35b6102ea60048036038101906102e591906122b2565b6109eb565b6040516102f79190611f52565b60405180910390f35b61031a6004803603810190610315919061232a565b610ab9565b6040516103279190611d4b565b60405180910390f35b60007f80ac58cd000000000000000000000000000000000000000000000000000000007bffffffffffffffffffffffffffffffffffffffffffffffffffffffff1916827bffffffffffffffffffffffffffffffffffffffffffffffffffffffff191614806103fb57507f5b5e139f000000000000000000000000000000000000000000000000000000007bffffffffffffffffffffffffffffffffffffffffffffffffffffffff1916827bffffffffffffffffffffffffffffffffffffffffffffffffffffffff1916145b8061040b575061040a82610b4d565b5b9050919050565b60606000805461042190612399565b80601f016020809104026020016040519081016040528092919081815260200182805461044d90612399565b801561049a5780601f1061046f5761010080835404028352916020019161049a565b820191906000526020600020905b81548152906001019060200180831161047d57829003601f168201915b5050505050905090565b60006104af82610bb7565b6004600083815260200190815260200160002060009054906101000a900473ffffffffffffffffffffffffffffffffffffffff169050919050565b60006104f582610692565b90508073ffffffffffffffffffffffffffffffffffffffff168373ffffffffffffffffffffffffffffffffffffffff1603610565576040517f08c379a000000000000000000000000000000000000000000000000000000000815260040161055c9061243c565b60405180910390fd5b8073ffffffffffffffffffffffffffffffffffffffff16610584610c02565b73ffffffffffffffffffffffffffffffffffffffff1614806105b357506105b2816105ad610c02565b610ab9565b5b6105f2576040517f08c379a00000000000000000000000000000000000000000000000000000000081526004016105e9906124ce565b60405180910390fd5b6105fc8383610c0a565b505050565b600061060d6007610cc3565b905090565b61062361061d610c02565b82610cd1565b610662576040517f08c379a000000000000000000000000000000000000000000000000000000000815260040161065990612560565b60405180910390fd5b61066d838383610d66565b505050565b61068d83838360405180602001604052806000815250610877565b505050565b60008061069e8361105f565b9050600073ffffffffffffffffffffffffffffffffffffffff168173ffffffffffffffffffffffffffffffffffffffff160361070f576040517f08c379a0000000000000000000000000000000000000000000000000000000008152600401610706906125cc565b60405180910390fd5b80915050919050565b60008073ffffffffffffffffffffffffffffffffffffffff168273ffffffffffffffffffffffffffffffffffffffff1603610788576040517f08c379a000000000000000000000000000000000000000000000000000000000815260040161077f9061265e565b60405180910390fd5b600360008373ffffffffffffffffffffffffffffffffffffffff1673ffffffffffffffffffffffffffffffffffffffff168152602001908152602001600020549050919050565b6060600180546107de90612399565b80601f016020809104026020016040519081016040528092919081815260200182805461080a90612399565b80156108575780601f1061082c57610100808354040283529160200191610857565b820191906000526020600020905b81548152906001019060200180831161083a57829003601f168201915b5050505050905090565b61087361086c610c02565b838361109c565b5050565b610888610882610c02565b83610cd1565b6108c7576040517f08c379a00000000000000000000000000000000000000000000000000000000081526004016108be90612560565b60405180910390fd5b6108d384848484611208565b50505050565b60606108e482610bb7565b600060066000848152602001908152602001600020805461090490612399565b80601f016020809104026020016040519081016040528092919081815260200182805461093090612399565b801561097d5780601f106109525761010080835404028352916020019161097d565b820191906000526020600020905b81548152906001019060200180831161096057829003601f168201915b50505050509050600061098e611264565b905060008151036109a35781925050506109e6565b6000825111156109d85780826040516020016109c09291906126ba565b604051602081830303815290604052925050506109e6565b6109e18461127b565b925050505b919050565b6000806109f86007610cc3565b9050610a0433826112e3565b6000610a0f82611301565b8486604051602001610a23939291906128f2565b60405160208183030381529060405290506000610a3f826113cf565b604051602001610a4f91906129c7565b6040516020818303038152906040529050610a6a8382611532565b610a74600761159f565b7f1c05098ed1ff38e6238d2b1b04b2c7977d4c94ce651bda6473f9dba8dbf01da03384604051610aa59291906129e9565b60405180910390a182935050505092915050565b6000600560008473ffffffffffffffffffffffffffffffffffffffff1673ffffffffffffffffffffffffffffffffffffffff16815260200190815260200160002060008373ffffffffffffffffffffffffffffffffffffffff1673ffffffffffffffffffffffffffffffffffffffff16815260200190815260200160002060009054906101000a900460ff16905092915050565b60007f01ffc9a7000000000000000000000000000000000000000000000000000000007bffffffffffffffffffffffffffffffffffffffffffffffffffffffff1916827bffffffffffffffffffffffffffffffffffffffffffffffffffffffff1916149050919050565b610bc0816115b5565b610bff576040517f08c379a0000000000000000000000000000000000000000000000000000000008152600401610bf6906125cc565b60405180910390fd5b50565b600033905090565b816004600083815260200190815260200160002060006101000a81548173ffffffffffffffffffffffffffffffffffffffff021916908373ffffffffffffffffffffffffffffffffffffffff160217905550808273ffffffffffffffffffffffffffffffffffffffff16610c7d83610692565b73ffffffffffffffffffffffffffffffffffffffff167f8c5be1e5ebec7d5bd14f71427d1e84f3dd0314c0f7b2291e5b200ac8c7c3b92560405160405180910390a45050565b600081600001549050919050565b600080610cdd83610692565b90508073ffffffffffffffffffffffffffffffffffffffff168473ffffffffffffffffffffffffffffffffffffffff161480610d1f5750610d1e8185610ab9565b5b80610d5d57508373ffffffffffffffffffffffffffffffffffffffff16610d45846104a4565b73ffffffffffffffffffffffffffffffffffffffff16145b91505092915050565b8273ffffffffffffffffffffffffffffffffffffffff16610d8682610692565b73ffffffffffffffffffffffffffffffffffffffff1614610ddc576040517f08c379a0000000000000000000000000000000000000000000000000000000008152600401610dd390612a84565b60405180910390fd5b600073ffffffffffffffffffffffffffffffffffffffff168273ffffffffffffffffffffffffffffffffffffffff1603610e4b576040517f08c379a0000000000000000000000000000000000000000000000000000000008152600401610e4290612b16565b60405180910390fd5b610e5883838360016115f6565b8273ffffffffffffffffffffffffffffffffffffffff16610e7882610692565b73ffffffffffffffffffffffffffffffffffffffff1614610ece576040517f08c379a0000000000000000000000000000000000000000000000000000000008152600401610ec590612a84565b60405180910390fd5b6004600082815260200190815260200160002060006101000a81549073ffffffffffffffffffffffffffffffffffffffff02191690556001600360008573ffffffffffffffffffffffffffffffffffffffff1673ffffffffffffffffffffffffffffffffffffffff168152602001908152602001600020600082825403925050819055506001600360008473ffffffffffffffffffffffffffffffffffffffff1673ffffffffffffffffffffffffffffffffffffffff16815260200190815260200160002060008282540192505081905550816002600083815260200190815260200160002060006101000a81548173ffffffffffffffffffffffffffffffffffffffff021916908373ffffffffffffffffffffffffffffffffffffffff160217905550808273ffffffffffffffffffffffffffffffffffffffff168473ffffffffffffffffffffffffffffffffffffffff167fddf252ad1be2c89b69c2b068fc378daa952ba7f163c4a11628f55a4df523b3ef60405160405180910390a461105a838383600161171c565b505050565b60006002600083815260200190815260200160002060009054906101000a900473ffffffffffffffffffffffffffffffffffffffff169050919050565b8173ffffffffffffffffffffffffffffffffffffffff168373ffffffffffffffffffffffffffffffffffffffff160361110a576040517f08c379a000000000000000000000000000000000000000000000000000000000815260040161110190612b82565b60405180910390fd5b80600560008573ffffffffffffffffffffffffffffffffffffffff1673ffffffffffffffffffffffffffffffffffffffff16815260200190815260200160002060008473ffffffffffffffffffffffffffffffffffffffff1673ffffffffffffffffffffffffffffffffffffffff16815260200190815260200160002060006101000a81548160ff0219169083151502179055508173ffffffffffffffffffffffffffffffffffffffff168373ffffffffffffffffffffffffffffffffffffffff167f17307eab39ab6107e8899845ad3d59bd9653f200f220920489ca2b5937696c31836040516111fb9190611d4b565b60405180910390a3505050565b611213848484610d66565b61121f84848484611722565b61125e576040517f08c379a000000000000000000000000000000000000000000000000000000000815260040161125590612c14565b60405180910390fd5b50505050565b606060405180602001604052806000815250905090565b606061128682610bb7565b6000611290611264565b905060008151116112b057604051806020016040528060008152506112db565b806112ba84611301565b6040516020016112cb9291906126ba565b6040516020818303038152906040525b915050919050565b6112fd8282604051806020016040528060008152506118a9565b5050565b60606000600161131084611904565b01905060008167ffffffffffffffff81111561132f5761132e612063565b5b6040519080825280601f01601f1916602001820160405280156113615781602001600182028036833780820191505090505b509050600082602001820190505b6001156113c4578080600190039150507f3031323334353637383961626364656600000000000000000000000000000000600a86061a8153600a85816113b8576113b7612c34565b5b0494506000850361136f575b819350505050919050565b606060008251036113f15760405180602001604052806000815250905061152d565b600060405180606001604052806040815260200161323960409139905060006003600285516114209190612c92565b61142a9190612cc6565b60046114369190612cf7565b67ffffffffffffffff81111561144f5761144e612063565b5b6040519080825280601f01601f1916602001820160405280156114815781602001600182028036833780820191505090505b509050600182016020820185865187015b808210156114ed576003820191508151603f8160121c168501518453600184019350603f81600c1c168501518453600184019350603f8160061c168501518453600184019350603f8116850151845360018401935050611492565b5050600386510660018114611509576002811461151c57611524565b603d6001830353603d6002830353611524565b603d60018303535b50505080925050505b919050565b61153b826115b5565b61157a576040517f08c379a000000000000000000000000000000000000000000000000000000000815260040161157190612dab565b60405180910390fd5b8060066000848152602001908152602001600020908161159a9190612f77565b505050565b6001816000016000828254019250508190555050565b60008073ffffffffffffffffffffffffffffffffffffffff166115d78361105f565b73ffffffffffffffffffffffffffffffffffffffff1614159050919050565b600181111561171657600073ffffffffffffffffffffffffffffffffffffffff168473ffffffffffffffffffffffffffffffffffffffff161461168a5780600360008673ffffffffffffffffffffffffffffffffffffffff1673ffffffffffffffffffffffffffffffffffffffff16815260200190815260200160002060008282546116829190613049565b925050819055505b600073ffffffffffffffffffffffffffffffffffffffff168373ffffffffffffffffffffffffffffffffffffffff16146117155780600360008573ffffffffffffffffffffffffffffffffffffffff1673ffffffffffffffffffffffffffffffffffffffff168152602001908152602001600020600082825461170d9190612c92565b925050819055505b5b50505050565b50505050565b60006117438473ffffffffffffffffffffffffffffffffffffffff16611a57565b1561189c578373ffffffffffffffffffffffffffffffffffffffff1663150b7a0261176c610c02565b8786866040518563ffffffff1660e01b815260040161178e94939291906130d2565b6020604051808303816000875af19250505080156117ca57506040513d601f19601f820116820180604052508101906117c79190613133565b60015b61184c573d80600081146117fa576040519150601f19603f3d011682016040523d82523d6000602084013e6117ff565b606091505b506000815103611844576040517f08c379a000000000000000000000000000000000000000000000000000000000815260040161183b90612c14565b60405180910390fd5b805181602001fd5b63150b7a0260e01b7bffffffffffffffffffffffffffffffffffffffffffffffffffffffff1916817bffffffffffffffffffffffffffffffffffffffffffffffffffffffff1916149150506118a1565b600190505b949350505050565b6118b38383611a7a565b6118c06000848484611722565b6118ff576040517f08c379a00000000000000000000000000000000000000000000000000000000081526004016118f690612c14565b60405180910390fd5b505050565b600080600090507a184f03e93ff9f4daa797ed6e38ed64bf6a1f0100000000000000008310611962577a184f03e93ff9f4daa797ed6e38ed64bf6a1f010000000000000000838161195857611957612c34565b5b0492506040810190505b6d04ee2d6d415b85acef8100000000831061199f576d04ee2d6d415b85acef8100000000838161199557611994612c34565b5b0492506020810190505b662386f26fc1000083106119ce57662386f26fc1000083816119c4576119c3612c34565b5b0492506010810190505b6305f5e10083106119f7576305f5e10083816119ed576119ec612c34565b5b0492506008810190505b6127108310611a1c576127108381611a1257611a11612c34565b5b0492506004810190505b60648310611a3f5760648381611a3557611a34612c34565b5b0492506002810190505b600a8310611a4e576001810190505b80915050919050565b6000808273ffffffffffffffffffffffffffffffffffffffff163b119050919050565b600073ffffffffffffffffffffffffffffffffffffffff168273ffffffffffffffffffffffffffffffffffffffff1603611ae9576040517f08c379a0000000000000000000000000000000000000000000000000000000008152600401611ae0906131ac565b60405180910390fd5b611af2816115b5565b15611b32576040517f08c379a0000000000000000000000000000000000000000000000000000000008152600401611b2990613218565b60405180910390fd5b611b406000838360016115f6565b611b49816115b5565b15611b89576040517f08c379a0000000000000000000000000000000000000000000000000000000008152600401611b8090613218565b60405180910390fd5b6001600360008473ffffffffffffffffffffffffffffffffffffffff1673ffffffffffffffffffffffffffffffffffffffff16815260200190815260200160002060008282540192505081905550816002600083815260200190815260200160002060006101000a81548173ffffffffffffffffffffffffffffffffffffffff021916908373ffffffffffffffffffffffffffffffffffffffff160217905550808273ffffffffffffffffffffffffffffffffffffffff16600073ffffffffffffffffffffffffffffffffffffffff167fddf252ad1be2c89b69c2b068fc378daa952ba7f163c4a11628f55a4df523b3ef60405160405180910390a4611c9360008383600161171c565b5050565b6000604051905090565b600080fd5b600080fd5b60007fffffffff0000000000000000000000000000000000000000000000000000000082169050919050565b611ce081611cab565b8114611ceb57600080fd5b50565b600081359050611cfd81611cd7565b92915050565b600060208284031215611d1957611d18611ca1565b5b6000611d2784828501611cee565b91505092915050565b60008115159050919050565b611d4581611d30565b82525050565b6000602082019050611d606000830184611d3c565b92915050565b600081519050919050565b600082825260208201905092915050565b60005b83811015611da0578082015181840152602081019050611d85565b60008484015250505050565b6000601f19601f8301169050919050565b6000611dc882611d66565b611dd28185611d71565b9350611de2818560208601611d82565b611deb81611dac565b840191505092915050565b60006020820190508181036000830152611e108184611dbd565b905092915050565b6000819050919050565b611e2b81611e18565b8114611e3657600080fd5b50565b600081359050611e4881611e22565b92915050565b600060208284031215611e6457611e63611ca1565b5b6000611e7284828501611e39565b91505092915050565b600073ffffffffffffffffffffffffffffffffffffffff82169050919050565b6000611ea682611e7b565b9050919050565b611eb681611e9b565b82525050565b6000602082019050611ed16000830184611ead565b92915050565b611ee081611e9b565b8114611eeb57600080fd5b50565b600081359050611efd81611ed7565b92915050565b60008060408385031215611f1a57611f19611ca1565b5b6000611f2885828601611eee565b9250506020611f3985828601611e39565b9150509250929050565b611f4c81611e18565b82525050565b6000602082019050611f676000830184611f43565b92915050565b600080600060608486031215611f8657611f85611ca1565b5b6000611f9486828701611eee565b9350506020611fa586828701611eee565b9250506040611fb686828701611e39565b9150509250925092565b600060208284031215611fd657611fd5611ca1565b5b6000611fe484828501611eee565b91505092915050565b611ff681611d30565b811461200157600080fd5b50565b60008135905061201381611fed565b92915050565b600080604083850312156120305761202f611ca1565b5b600061203e85828601611eee565b925050602061204f85828601612004565b9150509250929050565b600080fd5b600080fd5b7f4e487b7100000000000000000000000000000000000000000000000000000000600052604160045260246000fd5b61209b82611dac565b810181811067ffffffffffffffff821117156120ba576120b9612063565b5b80604052505050565b60006120cd611c97565b90506120d98282612092565b919050565b600067ffffffffffffffff8211156120f9576120f8612063565b5b61210282611dac565b9050602081019050919050565b82818337600083830152505050565b600061213161212c846120de565b6120c3565b90508281526020810184848401111561214d5761214c61205e565b5b61215884828561210f565b509392505050565b600082601f83011261217557612174612059565b5b813561218584826020860161211e565b91505092915050565b600080600080608085870312156121a8576121a7611ca1565b5b60006121b687828801611eee565b94505060206121c787828801611eee565b93505060406121d887828801611e39565b925050606085013567ffffffffffffffff8111156121f9576121f8611ca6565b5b61220587828801612160565b91505092959194509250565b600067ffffffffffffffff82111561222c5761222b612063565b5b61223582611dac565b9050602081019050919050565b600061225561225084612211565b6120c3565b9050828152602081018484840111156122715761227061205e565b5b61227c84828561210f565b509392505050565b600082601f83011261229957612298612059565b5b81356122a9848260208601612242565b91505092915050565b600080604083850312156122c9576122c8611ca1565b5b600083013567ffffffffffffffff8111156122e7576122e6611ca6565b5b6122f385828601612284565b925050602083013567ffffffffffffffff81111561231457612313611ca6565b5b61232085828601612284565b9150509250929050565b6000806040838503121561234157612340611ca1565b5b600061234f85828601611eee565b925050602061236085828601611eee565b9150509250929050565b7f4e487b7100000000000000000000000000000000000000000000000000000000600052602260045260246000fd5b600060028204905060018216806123b157607f821691505b6020821081036123c4576123c361236a565b5b50919050565b7f4552433732313a20617070726f76616c20746f2063757272656e74206f776e6560008201527f7200000000000000000000000000000000000000000000000000000000000000602082015250565b6000612426602183611d71565b9150612431826123ca565b604082019050919050565b6000602082019050818103600083015261245581612419565b9050919050565b7f4552433732313a20617070726f76652063616c6c6572206973206e6f7420746f60008201527f6b656e206f776e6572206f7220617070726f76656420666f7220616c6c000000602082015250565b60006124b8603d83611d71565b91506124c38261245c565b604082019050919050565b600060208201905081810360008301526124e7816124ab565b9050919050565b7f4552433732313a2063616c6c6572206973206e6f7420746f6b656e206f776e6560008201527f72206f7220617070726f76656400000000000000000000000000000000000000602082015250565b600061254a602d83611d71565b9150612555826124ee565b604082019050919050565b600060208201905081810360008301526125798161253d565b9050919050565b7f4552433732313a20696e76616c696420746f6b656e2049440000000000000000600082015250565b60006125b6601883611d71565b91506125c182612580565b602082019050919050565b600060208201905081810360008301526125e5816125a9565b9050919050565b7f4552433732313a2061646472657373207a65726f206973206e6f74206120766160008201527f6c6964206f776e65720000000000000000000000000000000000000000000000602082015250565b6000612648602983611d71565b9150612653826125ec565b604082019050919050565b600060208201905081810360008301526126778161263b565b9050919050565b600081905092915050565b600061269482611d66565b61269e818561267e565b93506126ae818560208601611d82565b80840191505092915050565b60006126c68285612689565b91506126d28284612689565b91508190509392505050565b7f7b00000000000000000000000000000000000000000000000000000000000000600082015250565b600061271460018361267e565b915061271f826126de565b600182019050919050565b7f226e616d65223a202253746162696c6974792041492023000000000000000000600082015250565b600061276060178361267e565b915061276b8261272a565b601782019050919050565b7f222c200000000000000000000000000000000000000000000000000000000000600082015250565b60006127ac60038361267e565b91506127b782612776565b600382019050919050565b7f226465736372697074696f6e223a202200000000000000000000000000000000600082015250565b60006127f860108361267e565b9150612803826127c2565b601082019050919050565b7f22696d616765223a202200000000000000000000000000000000000000000000600082015250565b6000612844600a8361267e565b915061284f8261280e565b600a82019050919050565b7f2200000000000000000000000000000000000000000000000000000000000000600082015250565b600061289060018361267e565b915061289b8261285a565b600182019050919050565b7f7d00000000000000000000000000000000000000000000000000000000000000600082015250565b60006128dc60018361267e565b91506128e7826128a6565b600182019050919050565b60006128fd82612707565b915061290882612753565b91506129148286612689565b915061291f8261279f565b915061292a826127eb565b91506129368285612689565b91506129418261279f565b915061294c82612837565b91506129588284612689565b915061296382612883565b915061296e826128cf565b9150819050949350505050565b7f646174613a6170706c69636174696f6e2f6a736f6e3b6261736536342c000000600082015250565b60006129b1601d8361267e565b91506129bc8261297b565b601d82019050919050565b60006129d2826129a4565b91506129de8284612689565b915081905092915050565b60006040820190506129fe6000830185611ead565b612a0b6020830184611f43565b9392505050565b7f4552433732313a207472616e736665722066726f6d20696e636f72726563742060008201527f6f776e6572000000000000000000000000000000000000000000000000000000602082015250565b6000612a6e602583611d71565b9150612a7982612a12565b604082019050919050565b60006020820190508181036000830152612a9d81612a61565b9050919050565b7f4552433732313a207472616e7366657220746f20746865207a65726f2061646460008201527f7265737300000000000000000000000000000000000000000000000000000000602082015250565b6000612b00602483611d71565b9150612b0b82612aa4565b604082019050919050565b60006020820190508181036000830152612b2f81612af3565b9050919050565b7f4552433732313a20617070726f766520746f2063616c6c657200000000000000600082015250565b6000612b6c601983611d71565b9150612b7782612b36565b602082019050919050565b60006020820190508181036000830152612b9b81612b5f565b9050919050565b7f4552433732313a207472616e7366657220746f206e6f6e20455243373231526560008201527f63656976657220696d706c656d656e7465720000000000000000000000000000602082015250565b6000612bfe603283611d71565b9150612c0982612ba2565b604082019050919050565b60006020820190508181036000830152612c2d81612bf1565b9050919050565b7f4e487b7100000000000000000000000000000000000000000000000000000000600052601260045260246000fd5b7f4e487b7100000000000000000000000000000000000000000000000000000000600052601160045260246000fd5b6000612c9d82611e18565b9150612ca883611e18565b9250828201905080821115612cc057612cbf612c63565b5b92915050565b6000612cd182611e18565b9150612cdc83611e18565b925082612cec57612ceb612c34565b5b828204905092915050565b6000612d0282611e18565b9150612d0d83611e18565b9250828202612d1b81611e18565b91508282048414831517612d3257612d31612c63565b5b5092915050565b7f45524337323155524953746f726167653a2055524920736574206f66206e6f6e60008201527f6578697374656e7420746f6b656e000000000000000000000000000000000000602082015250565b6000612d95602e83611d71565b9150612da082612d39565b604082019050919050565b60006020820190508181036000830152612dc481612d88565b9050919050565b60008190508160005260206000209050919050565b60006020601f8301049050919050565b600082821b905092915050565b600060088302612e2d7fffffffffffffffffffffffffffffffffffffffffffffffffffffffffffffffff82612df0565b612e378683612df0565b95508019841693508086168417925050509392505050565b6000819050919050565b6000612e74612e6f612e6a84611e18565b612e4f565b611e18565b9050919050565b6000819050919050565b612e8e83612e59565b612ea2612e9a82612e7b565b848454612dfd565b825550505050565b600090565b612eb7612eaa565b612ec2818484612e85565b505050565b5b81811015612ee657612edb600082612eaf565b600181019050612ec8565b5050565b601f821115612f2b57612efc81612dcb565b612f0584612de0565b81016020851015612f14578190505b612f28612f2085612de0565b830182612ec7565b50505b505050565b600082821c905092915050565b6000612f4e60001984600802612f30565b1980831691505092915050565b6000612f678383612f3d565b9150826002028217905092915050565b612f8082611d66565b67ffffffffffffffff811115612f9957612f98612063565b5b612fa38254612399565b612fae828285612eea565b600060209050601f831160018114612fe15760008415612fcf578287015190505b612fd98582612f5b565b865550613041565b601f198416612fef86612dcb565b60005b8281101561301757848901518255600182019150602085019450602081019050612ff2565b868310156130345784890151613030601f891682612f3d565b8355505b6001600288020188555050505b505050505050565b600061305482611e18565b915061305f83611e18565b925082820390508181111561307757613076612c63565b5b92915050565b600081519050919050565b600082825260208201905092915050565b60006130a48261307d565b6130ae8185613088565b93506130be818560208601611d82565b6130c781611dac565b840191505092915050565b60006080820190506130e76000830187611ead565b6130f46020830186611ead565b6131016040830185611f43565b81810360608301526131138184613099565b905095945050505050565b60008151905061312d81611cd7565b92915050565b60006020828403121561314957613148611ca1565b5b60006131578482850161311e565b91505092915050565b7f4552433732313a206d696e7420746f20746865207a65726f2061646472657373600082015250565b6000613196602083611d71565b91506131a182613160565b602082019050919050565b600060208201905081810360008301526131c581613189565b9050919050565b7f4552433732313a20746f6b656e20616c7265616479206d696e74656400000000600082015250565b6000613202601c83611d71565b915061320d826131cc565b602082019050919050565b60006020820190508181036000830152613231816131f5565b905091905056fe4142434445464748494a4b4c4d4e4f505152535455565758595a6162636465666768696a6b6c6d6e6f707172737475767778797a303132333435363738392b2fa26469706673582212208178dc6bca1730d1344f8dff11bf9119b76627cb8545ca42d8ff02c862a9743a64736f6c63430008110033",
  "linkReferences": {},
  "deployedLinkReferences": {}
}